:100000000C9434000C943E000C943E000C943E0082
:100010000C943E000C943E000C943E000C943E0068
:100020000C943E000C943E000C943E000C943E0058
:100030000C943E000C943E000C943E000C943E0048
:100040000C943E000C943E000C943E000C943E0038
:100050000C943E000C943E000C943E000C943E0028
:100060000C943E000C943E0011241FBECFEFD8E04C
:10007000DEBFCDBF0E94AC000C94DB000C940000EE
:10008000019741F484B1886284B924988CB5806169
:100090008CBD04C0249A84B1837D84B98CB58364FB
:1000A0008CBD08958EBD0DB407FEFDCF8EB50895AD
:1000B000229A389A3B9A519A549A579A08952A9AB2
:1000C000409A439A599A5C9A5F9A0895439A8FE1AD
:1000D0009EE40197F1F700C0000043988FE19EE491
:1000E0000197F1F700C0000085E20E9452008FE105
:1000F0009EE40197F1F700C00000439A08953C9AEE
:1001000044982FEF89EF90E0215080409040E1F734
:1001100000C00000449A2FEF81EE94E0215080400F
:100120009040E1F700C0000008954398EFE3FCE938
:100130003197F1F700C000000E9452008FE39CE964
:100140000197F1F700C00000439AEFE9FFE0319713
:10015000F1F700C00000089581E090E00E944000A7
:100160000E9458000E945F000E947F0080E00E9471
:10017000950081E00E94950088E60E94950085E642
:100180000E9495008CE60E9495008CE60E949500E6
:100190008FE60E9495008AE00E9495008FEF0E94F2
:1001A00095002FEF83ED90E3215080409040E1F7E0
:0A01B00000C00000DBCFF894FFCF81
:00000001FF
